{
  "_format": "hh-sol-artifact-1",
  "contractName": "CampusCredit",
  "sourceName": "contracts/CampusCredit.sol",
  "abi": [
    {
      "inputs": [],
      "stateMutability": "nonpayable",
      "type": "constructor"
    },
    {
      "inputs": [],
      "name": "AccessControlBadConfirmation",
      "type": "error"
    },
    {
      "inputs": [
        {
          "internalType": "address",
          "name": "account",
          "type": "address"
        },
        {
          "internalType": "bytes32",
          "name": "neededRole",
          "type": "bytes32"
        }
      ],
      "name": "AccessControlUnauthorizedAccount",
      "type": "error"
    },
    {
      "inputs": [
        {
          "internalType": "address",
          "name": "spender",
          "type": "address"
        },
        {
          "internalType": "uint256",
          "name": "allowance",
          "type": "uint256"
        },
        {
          "internalType": "uint256",
          "name": "needed",
          "type": "uint256"
        }
      ],
      "name": "ERC20InsufficientAllowance",
      "type": "error"
    },
    {
      "inputs": [
        {
          "internalType": "address",
          "name": "sender",
          "type": "address"
        },
        {
          "internalType": "uint256",
          "name": "balance",
          "type": "uint256"
        },
        {
          "internalType": "uint256",
          "name": "needed",
          "type": "uint256"
        }
      ],
      "name": "ERC20InsufficientBalance",
      "type": "error"
    },
    {
      "inputs": [
        {
          "internalType": "address",
          "name": "approver",
          "type": "address"
        }
      ],
      "name": "ERC20InvalidApprover",
      "type": "error"
    },
    {
      "inputs": [
        {
          "internalType": "address",
          "name": "receiver",
          "type": "address"
        }
      ],
      "name": "ERC20InvalidReceiver",
      "type": "error"
    },
    {
      "inputs": [
        {
          "internalType": "address",
          "name": "sender",
          "type": "address"
        }
      ],
      "name": "ERC20InvalidSender",
      "type": "error"
    },
    {
      "inputs": [
        {
          "internalType": "address",
          "name": "spender",
          "type": "address"
        }
      ],
      "name": "ERC20InvalidSpender",
      "type": "error"
    },
    {
      "inputs": [],
      "name": "EnforcedPause",
      "type": "error"
    },
    {
      "inputs": [],
      "name": "ExpectedPause",
      "type": "error"
    },
    {
      "anonymous": false,
      "inputs": [
        {
          "indexed": true,
          "internalType": "address",
          "name": "owner",
          "type": "address"
        },
        {
          "indexed": true,
          "internalType": "address",
          "name": "spender",
          "type": "address"
        },
        {
          "indexed": false,
          "internalType": "uint256",
          "name": "value",
          "type": "uint256"
        }
      ],
      "name": "Approval",
      "type": "event"
    },
    {
      "anonymous": false,
      "inputs": [
        {
          "indexed": false,
          "internalType": "address",
          "name": "account",
          "type": "address"
        }
      ],
      "name": "Paused",
      "type": "event"
    },
    {
      "anonymous": false,
      "inputs": [
        {
          "indexed": true,
          "internalType": "bytes32",
          "name": "role",
          "type": "bytes32"
        },
        {
          "indexed": true,
          "internalType": "bytes32",
          "name": "previousAdminRole",
          "type": "bytes32"
        },
        {
          "indexed": true,
          "internalType": "bytes32",
          "name": "newAdminRole",
          "type": "bytes32"
        }
      ],
      "name": "RoleAdminChanged",
      "type": "event"
    },
    {
      "anonymous": false,
      "inputs": [
        {
          "indexed": true,
          "internalType": "bytes32",
          "name": "role",
          "type": "bytes32"
        },
        {
          "indexed": true,
          "internalType": "address",
          "name": "account",
          "type": "address"
        },
        {
          "indexed": true,
          "internalType": "address",
          "name": "sender",
          "type": "address"
        }
      ],
      "name": "RoleGranted",
      "type": "event"
    },
    {
      "anonymous": false,
      "inputs": [
        {
          "indexed": true,
          "internalType": "bytes32",
          "name": "role",
          "type": "bytes32"
        },
        {
          "indexed": true,
          "internalType": "address",
          "name": "account",
          "type": "address"
        },
        {
          "indexed": true,
          "internalType": "address",
          "name": "sender",
          "type": "address"
        }
      ],
      "name": "RoleRevoked",
      "type": "event"
    },
    {
      "anonymous": false,
      "inputs": [
        {
          "indexed": true,
          "internalType": "address",
          "name": "from",
          "type": "address"
        },
        {
          "indexed": true,
          "internalType": "address",
          "name": "to",
          "type": "address"
        },
        {
          "indexed": false,
          "internalType": "uint256",
          "name": "value",
          "type": "uint256"
        }
      ],
      "name": "Transfer",
      "type": "event"
    },
    {
      "anonymous": false,
      "inputs": [
        {
          "indexed": true,
          "internalType": "address",
          "name": "from",
          "type": "address"
        },
        {
          "indexed": true,
          "internalType": "address",
          "name": "merchant",
          "type": "address"
        },
        {
          "indexed": false,
          "internalType": "uint256",
          "name": "amount",
          "type": "uint256"
        },
        {
          "indexed": false,
          "internalType": "uint256",
          "name": "cashback",
          "type": "uint256"
        }
      ],
      "name": "TransferWithCashback",
      "type": "event"
    },
    {
      "anonymous": false,
      "inputs": [
        {
          "indexed": false,
          "internalType": "address",
          "name": "account",
          "type": "address"
        }
      ],
      "name": "Unpaused",
      "type": "event"
    },
    {
      "inputs": [],
      "name": "DEFAULT_ADMIN_ROLE",
      "outputs": [
        {
          "internalType": "bytes32",
          "name": "",
          "type": "bytes32"
        }
      ],
      "stateMutability": "view",
      "type": "function"
    },
    {
      "inputs": [],
      "name": "MINTER_ROLE",
      "outputs": [
        {
          "internalType": "bytes32",
          "name": "",
          "type": "bytes32"
        }
      ],
      "stateMutability": "view",
      "type": "function"
    },
    {
      "inputs": [],
      "name": "PAUSER_ROLE",
      "outputs": [
        {
          "internalType": "bytes32",
          "name": "",
          "type": "bytes32"
        }
      ],
      "stateMutability": "view",
      "type": "function"
    },
    {
      "inputs": [
        {
          "internalType": "address",
          "name": "owner",
          "type": "address"
        },
        {
          "internalType": "address",
          "name": "spender",
          "type": "address"
        }
      ],
      "name": "allowance",
      "outputs": [
        {
          "internalType": "uint256",
          "name": "",
          "type": "uint256"
        }
      ],
      "stateMutability": "view",
      "type": "function"
    },
    {
      "inputs": [
        {
          "internalType": "address",
          "name": "spender",
          "type": "address"
        },
        {
          "internalType": "uint256",
          "name": "value",
          "type": "uint256"
        }
      ],
      "name": "approve",
      "outputs": [
        {
          "internalType": "bool",
          "name": "",
          "type": "bool"
        }
      ],
      "stateMutability": "nonpayable",
      "type": "function"
    },
    {
      "inputs": [
        {
          "internalType": "address",
          "name": "account",
          "type": "address"
        }
      ],
      "name": "balanceOf",
      "outputs": [
        {
          "internalType": "uint256",
          "name": "",
          "type": "uint256"
        }
      ],
      "stateMutability": "view",
      "type": "function"
    },
    {
      "inputs": [
        {
          "internalType": "uint256",
          "name": "value",
          "type": "uint256"
        }
      ],
      "name": "burn",
      "outputs": [],
      "stateMutability": "nonpayable",
      "type": "function"
    },
    {
      "inputs": [
        {
          "internalType": "address",
          "name": "account",
          "type": "address"
        },
        {
          "internalType": "uint256",
          "name": "value",
          "type": "uint256"
        }
      ],
      "name": "burnFrom",
      "outputs": [],
      "stateMutability": "nonpayable",
      "type": "function"
    },
    {
      "inputs": [],
      "name": "cashbackPercentage",
      "outputs": [
        {
          "internalType": "uint256",
          "name": "",
          "type": "uint256"
        }
      ],
      "stateMutability": "view",
      "type": "function"
    },
    {
      "inputs": [
        {
          "internalType": "address",
          "name": "",
          "type": "address"
        }
      ],
      "name": "dailySpendingLimit",
      "outputs": [
        {
          "internalType": "uint256",
          "name": "",
          "type": "uint256"
        }
      ],
      "stateMutability": "view",
      "type": "function"
    },
    {
      "inputs": [],
      "name": "decimals",
      "outputs": [
        {
          "internalType": "uint8",
          "name": "",
          "type": "uint8"
        }
      ],
      "stateMutability": "view",
      "type": "function"
    },
    {
      "inputs": [
        {
          "internalType": "bytes32",
          "name": "role",
          "type": "bytes32"
        }
      ],
      "name": "getRoleAdmin",
      "outputs": [
        {
          "internalType": "bytes32",
          "name": "",
          "type": "bytes32"
        }
      ],
      "stateMutability": "view",
      "type": "function"
    },
    {
      "inputs": [
        {
          "internalType": "bytes32",
          "name": "role",
          "type": "bytes32"
        },
        {
          "internalType": "address",
          "name": "account",
          "type": "address"
        }
      ],
      "name": "grantRole",
      "outputs": [],
      "stateMutability": "nonpayable",
      "type": "function"
    },
    {
      "inputs": [
        {
          "internalType": "bytes32",
          "name": "role",
          "type": "bytes32"
        },
        {
          "internalType": "address",
          "name": "account",
          "type": "address"
        }
      ],
      "name": "hasRole",
      "outputs": [
        {
          "internalType": "bool",
          "name": "",
          "type": "bool"
        }
      ],
      "stateMutability": "view",
      "type": "function"
    },
    {
      "inputs": [
        {
          "internalType": "address",
          "name": "",
          "type": "address"
        }
      ],
      "name": "isMerchant",
      "outputs": [
        {
          "internalType": "bool",
          "name": "",
          "type": "bool"
        }
      ],
      "stateMutability": "view",
      "type": "function"
    },
    {
      "inputs": [
        {
          "internalType": "address",
          "name": "",
          "type": "address"
        }
      ],
      "name": "lastSpendingReset",
      "outputs": [
        {
          "internalType": "uint256",
          "name": "",
          "type": "uint256"
        }
      ],
      "stateMutability": "view",
      "type": "function"
    },
    {
      "inputs": [
        {
          "internalType": "address",
          "name": "",
          "type": "address"
        }
      ],
      "name": "merchantName",
      "outputs": [
        {
          "internalType": "string",
          "name": "",
          "type": "string"
        }
      ],
      "stateMutability": "view",
      "type": "function"
    },
    {
      "inputs": [
        {
          "internalType": "address",
          "name": "to",
          "type": "address"
        },
        {
          "internalType": "uint256",
          "name": "amount",
          "type": "uint256"
        }
      ],
      "name": "mint",
      "outputs": [],
      "stateMutability": "nonpayable",
      "type": "function"
    },
    {
      "inputs": [],
      "name": "name",
      "outputs": [
        {
          "internalType": "string",
          "name": "",
          "type": "string"
        }
      ],
      "stateMutability": "view",
      "type": "function"
    },
    {
      "inputs": [],
      "name": "pause",
      "outputs": [],
      "stateMutability": "nonpayable",
      "type": "function"
    },
    {
      "inputs": [],
      "name": "paused",
      "outputs": [
        {
          "internalType": "bool",
          "name": "",
          "type": "bool"
        }
      ],
      "stateMutability": "view",
      "type": "function"
    },
    {
      "inputs": [
        {
          "internalType": "address",
          "name": "merchant",
          "type": "address"
        },
        {
          "internalType": "string",
          "name": "name",
          "type": "string"
        }
      ],
      "name": "registerMerchant",
      "outputs": [],
      "stateMutability": "nonpayable",
      "type": "function"
    },
    {
      "inputs": [
        {
          "internalType": "bytes32",
          "name": "role",
          "type": "bytes32"
        },
        {
          "internalType": "address",
          "name": "callerConfirmation",
          "type": "address"
        }
      ],
      "name": "renounceRole",
      "outputs": [],
      "stateMutability": "nonpayable",
      "type": "function"
    },
    {
      "inputs": [
        {
          "internalType": "bytes32",
          "name": "role",
          "type": "bytes32"
        },
        {
          "internalType": "address",
          "name": "account",
          "type": "address"
        }
      ],
      "name": "revokeRole",
      "outputs": [],
      "stateMutability": "nonpayable",
      "type": "function"
    },
    {
      "inputs": [
        {
          "internalType": "address",
          "name": "student",
          "type": "address"
        },
        {
          "internalType": "uint256",
          "name": "limit",
          "type": "uint256"
        }
      ],
      "name": "setDailyLimit",
      "outputs": [],
      "stateMutability": "nonpayable",
      "type": "function"
    },
    {
      "inputs": [
        {
          "internalType": "address",
          "name": "",
          "type": "address"
        }
      ],
      "name": "spentToday",
      "outputs": [
        {
          "internalType": "uint256",
          "name": "",
          "type": "uint256"
        }
      ],
      "stateMutability": "view",
      "type": "function"
    },
    {
      "inputs": [
        {
          "internalType": "bytes4",
          "name": "interfaceId",
          "type": "bytes4"
        }
      ],
      "name": "supportsInterface",
      "outputs": [
        {
          "internalType": "bool",
          "name": "",
          "type": "bool"
        }
      ],
      "stateMutability": "view",
      "type": "function"
    },
    {
      "inputs": [],
      "name": "symbol",
      "outputs": [
        {
          "internalType": "string",
          "name": "",
          "type": "string"
        }
      ],
      "stateMutability": "view",
      "type": "function"
    },
    {
      "inputs": [],
      "name": "totalSupply",
      "outputs": [
        {
          "internalType": "uint256",
          "name": "",
          "type": "uint256"
        }
      ],
      "stateMutability": "view",
      "type": "function"
    },
    {
      "inputs": [
        {
          "internalType": "address",
          "name": "to",
          "type": "address"
        },
        {
          "internalType": "uint256",
          "name": "value",
          "type": "uint256"
        }
      ],
      "name": "transfer",
      "outputs": [
        {
          "internalType": "bool",
          "name": "",
          "type": "bool"
        }
      ],
      "stateMutability": "nonpayable",
      "type": "function"
    },
    {
      "inputs": [
        {
          "internalType": "address",
          "name": "from",
          "type": "address"
        },
        {
          "internalType": "address",
          "name": "to",
          "type": "address"
        },
        {
          "internalType": "uint256",
          "name": "value",
          "type": "uint256"
        }
      ],
      "name": "transferFrom",
      "outputs": [
        {
          "internalType": "bool",
          "name": "",
          "type": "bool"
        }
      ],
      "stateMutability": "nonpayable",
      "type": "function"
    },
    {
      "inputs": [
        {
          "internalType": "address",
          "name": "merchant",
          "type": "address"
        },
        {
          "internalType": "uint256",
          "name": "amount",
          "type": "uint256"
        }
      ],
      "name": "transferWithCashback",
      "outputs": [],
      "stateMutability": "nonpayable",
      "type": "function"
    },
    {
      "inputs": [
        {
          "internalType": "address",
          "name": "to",
          "type": "address"
        },
        {
          "internalType": "uint256",
          "name": "amount",
          "type": "uint256"
        }
      ],
      "name": "transferWithLimit",
      "outputs": [],
      "stateMutability": "nonpayable",
      "type": "function"
    },
    {
      "inputs": [],
      "name": "unpause",
      "outputs": [],
      "stateMutability": "nonpayable",
      "type": "function"
    }
  ],
  "bytecode": "0x60806040526002600c5534801561001557600080fd5b506040518060400160405280600d81526020016c10d85b5c1d5cc810dc99591a5d609a1b8152506040518060400160405280600681526020016510d49151125560d21b815250816003908161006a9190610458565b5060046100778282610458565b5061008791506000905033610105565b506100b27f65d7a28e3265b37a6474929f336521b332c1681b933f6cb9f3376673440d862a33610105565b506100dd7f9f2df0fed2c77648de5860a4cc508cd0818c85b8b8a1ab4ceeef8d981c8956a633610105565b50610100336100ee6012600a610613565b6100fb90620f4240610629565b6101b5565b610653565b60008281526006602090815260408083206001600160a01b038516845290915281205460ff166101ab5760008381526006602090815260408083206001600160a01b03861684529091529020805460ff191660011790556101633390565b6001600160a01b0316826001600160a01b0316847f2f8788117e7eff1d82e926ec794901d17c78024a50270940304540a733656f0d60405160405180910390a45060016101af565b5060005b92915050565b6001600160a01b0382166101e45760405163ec442f0560e01b8152600060048201526024015b60405180910390fd5b6101f0600083836101f4565b5050565b60055460ff16156102475760405162461bcd60e51b815260206004820152601660248201527f546f6b656e207472616e7366657273207061757365640000000000000000000060448201526064016101db565b610252838383610257565b505050565b61025f61026a565b610252838383610290565b60055460ff161561028e5760405163d93c066560e01b815260040160405180910390fd5b565b6001600160a01b0383166102bb5780600260008282546102b09190610640565b9091555061032d9050565b6001600160a01b0383166000908152602081905260409020548181101561030e5760405163391434e360e21b81526001600160a01b038516600482015260248101829052604481018390526064016101db565b6001600160a01b03841660009081526020819052604090209082900390555b6001600160a01b03821661034957600280548290039055610368565b6001600160a01b03821660009081526020819052604090208054820190555b816001600160a01b0316836001600160a01b03167fddf252ad1be2c89b69c2b068fc378daa952ba7f163c4a11628f55a4df523b3ef836040516103ad91815260200190565b60405180910390a3505050565b634e487b7160e01b600052604160045260246000fd5b600181811c908216806103e457607f821691505b60208210810361040457634e487b7160e01b600052602260045260246000fd5b50919050565b601f82111561025257806000526020600020601f840160051c810160208510156104315750805b601f840160051c820191505b81811015610451576000815560010161043d565b5050505050565b81516001600160401b03811115610471576104716103ba565b6104858161047f84546103d0565b8461040a565b6020601f8211600181146104b957600083156104a15750848201515b600019600385901b1c1916600184901b178455610451565b600084815260208120601f198516915b828110156104e957878501518255602094850194600190920191016104c9565b50848210156105075786840151600019600387901b60f8161c191681555b50505050600190811b01905550565b634e487b7160e01b600052601160045260246000fd5b6001815b60018411156105675780850481111561054b5761054b610516565b600184161561055957908102905b60019390931c928002610530565b935093915050565b60008261057e575060016101af565b8161058b575060006101af565b81600181146105a157600281146105ab576105c7565b60019150506101af565b60ff8411156105bc576105bc610516565b50506001821b6101af565b5060208310610133831016604e8410600b84101617156105ea575081810a6101af565b6105f7600019848461052c565b806000190482111561060b5761060b610516565b029392505050565b600061062260ff84168361056f565b9392505050565b80820281158282048414176101af576101af610516565b808201808211156101af576101af610516565b611c23806106626000396000f3fe608060405234801561001057600080fd5b50600436106102065760003560e01c806342966c681161011a57806391d14854116100ad578063a9059cbb1161007c578063a9059cbb14610465578063d539139314610478578063d547741f1461049f578063dd62ed3e146104b2578063e63ab1e9146104eb57600080fd5b806391d148541461042f57806395d89b4114610442578063a217fddf1461044a578063a6c8a3841461045257600080fd5b806370a08231116100e957806370a08231146103cb57806379cc6790146103f45780638456cb59146104075780638aeac5011461040f57600080fd5b806342966c68146103875780635c975abb1461039a5780635cc18e2f146103a557806360caa609146103b857600080fd5b8063248a9ca31161019d5780632f2ff15d1161016c5780632f2ff15d14610337578063313ce5671461034a57806336568abe146103595780633f4ba83a1461036c57806340c10f191461037457600080fd5b8063248a9ca3146102c1578063251de801146102e4578063257caf9e146103045780632803212f1461032457600080fd5b80631a2f7167116101d95780631a2f71671461026d5780631c9cef041461029057806322083bd01461029957806323b872dd146102ae57600080fd5b806301ffc9a71461020b57806306fdde0314610233578063095ea7b31461024857806318160ddd1461025b575b600080fd5b61021e6102193660046116c3565b610512565b60405190151581526020015b60405180910390f35b61023b610549565b60405161022a91906116f4565b61021e61025636600461175e565b6105db565b6002545b60405190815260200161022a565b61021e61027b366004611788565b600a6020526000908152604090205460ff1681565b61025f600c5481565b6102ac6102a736600461175e565b6105f3565b005b61021e6102bc3660046117a3565b610803565b61025f6102cf3660046117e0565b60009081526006602052604090206001015490565b61025f6102f2366004611788565b60096020526000908152604090205481565b61025f610312366004611788565b60076020526000908152604090205481565b6102ac61033236600461175e565b610827565b6102ac6103453660046117f9565b61090d565b6040516012815260200161022a565b6102ac6103673660046117f9565b610938565b6102ac610970565b6102ac61038236600461175e565b6109ea565b6102ac6103953660046117e0565b610b63565b60055460ff1661021e565b6102ac6103b336600461175e565b610b70565b61023b6103c6366004611788565b610e1b565b61025f6103d9366004611788565b6001600160a01b031660009081526020819052604090205490565b6102ac61040236600461175e565b610eb5565b6102ac610eca565b61025f61041d366004611788565b60086020526000908152604090205481565b61021e61043d3660046117f9565b610f42565b61023b610f6d565b61025f600081565b6102ac61046036600461183b565b610f7c565b61021e61047336600461175e565b6110ce565b61025f7f9f2df0fed2c77648de5860a4cc508cd0818c85b8b8a1ab4ceeef8d981c8956a681565b6102ac6104ad3660046117f9565b6110dc565b61025f6104c0366004611905565b6001600160a01b03918216600090815260016020908152604080832093909416825291909152205490565b61025f7f65d7a28e3265b37a6474929f336521b332c1681b933f6cb9f3376673440d862a81565b60006001600160e01b03198216637965db0b60e01b148061054357506301ffc9a760e01b6001600160e01b03198316145b92915050565b6060600380546105589061192f565b80601f01602080910402602001604051908101604052809291908181526020018280546105849061192f565b80156105d15780601f106105a6576101008083540402835291602001916105d1565b820191906000526020600020905b8154815290600101906020018083116105b457829003601f168201915b5050505050905090565b6000336105e9818585611101565b5060019392505050565b6001600160a01b03821661064e5760405162461bcd60e51b815260206004820152601f60248201527f43616e6e6f74207472616e7366657220746f207a65726f20616464726573730060448201526064015b60405180910390fd5b6000811161066e5760405162461bcd60e51b815260040161064590611969565b336000908152602081905260409020548111156106c45760405162461bcd60e51b8152602060048201526014602482015273496e73756666696369656e742062616c616e636560601b6044820152606401610645565b336000908152600760205260409020546107165760405162461bcd60e51b815260206004820152601360248201527211185a5b1e481b1a5b5a5d081b9bdd081cd95d606a1b6044820152606401610645565b33600090815260096020526040902054620151809061073590426119b4565b1061075a57336000908152600860209081526040808320839055600990915290204290555b336000908152600760209081526040808320546008909252909120546107819083906119c7565b11156107cf5760405162461bcd60e51b815260206004820152601d60248201527f4461696c79207370656e64696e67206c696d69742065786365656465640000006044820152606401610645565b33600090815260086020526040812080548392906107ee9084906119c7565b909155506107ff905033838361110e565b5050565b60003361081185828561116d565b61081c85858561110e565b506001949350505050565b6000610832816111e6565b6001600160a01b0383166108885760405162461bcd60e51b815260206004820152601760248201527f496e76616c69642073747564656e7420616464726573730000000000000000006044820152606401610645565b600082116108d85760405162461bcd60e51b815260206004820152601f60248201527f4c696d6974206d7573742062652067726561746572207468616e207a65726f006044820152606401610645565b506001600160a01b03909116600090815260076020908152604080832093909355600981528282204290556008905290812055565b600082815260066020526040902060010154610928816111e6565b61093283836111f0565b50505050565b6001600160a01b03811633146109615760405163334bd91960e11b815260040160405180910390fd5b61096b8282611284565b505050565b61099a7f65d7a28e3265b37a6474929f336521b332c1681b933f6cb9f3376673440d862a33610f42565b6109e05760405162461bcd60e51b815260206004820152601760248201527621b0b63632b91034b9903737ba1030903830bab998183960491b6044820152606401610645565b6109e86112f1565b565b610a147f9f2df0fed2c77648de5860a4cc508cd0818c85b8b8a1ab4ceeef8d981c8956a633610f42565b610a595760405162461bcd60e51b815260206004820152601660248201527521b0b63632b91034b9903737ba10309036b4b73a32b960511b6044820152606401610645565b60008111610a795760405162461bcd60e51b815260040161064590611969565b6001600160a01b038216610acf5760405162461bcd60e51b815260206004820152601b60248201527f43616e6e6f74206d696e7420746f207a65726f206164647265737300000000006044820152606401610645565b610adb6012600a611ac1565b610ae890620f4240611ad0565b81610b08846001600160a01b031660009081526020819052604090205490565b610b1291906119c7565b1115610b595760405162461bcd60e51b8152602060048201526016602482015275135a5b9d1a5b99c81b1a5b5a5d08195e18d95959195960521b6044820152606401610645565b6107ff8282611343565b610b6d3382611379565b50565b6001600160a01b0382166000908152600a602052604090205460ff16610bd85760405162461bcd60e51b815260206004820152601960248201527f4e6f7420612072656769737465726564206d65726368616e74000000000000006044820152606401610645565b60008111610bf85760405162461bcd60e51b815260040161064590611969565b33600090815260208190526040902054811115610c625760405162461bcd60e51b815260206004820152602260248201527f496e73756666696369656e742043616d707573204372656469742062616c616e604482015261636560f01b6064820152608401610645565b33600090815260076020526040902054610cbe5760405162461bcd60e51b815260206004820152601e60248201527f4461696c79206c696d6974206e6f742073657420666f722073656e64657200006044820152606401610645565b336000908152600960205260409020546201518090610cdd90426119b4565b10610d0257336000908152600860209081526040808320839055600990915290204290555b33600090815260076020908152604080832054600890925290912054610d299083906119c7565b1115610d775760405162461bcd60e51b815260206004820152601d60248201527f4461696c79207370656e64696e67206c696d69742065786365656465640000006044820152606401610645565b3360009081526008602052604081208054839290610d969084906119c7565b90915550610da7905033838361110e565b60006064600c5483610db99190611ad0565b610dc39190611ae7565b9050610dcf3382611343565b60408051838152602081018390526001600160a01b0385169133917f9b66a6e551cb32ff1fa78830f83b93be1aa031a3b2bd93aa16818d97ba5602a191015b60405180910390a3505050565b600b6020526000908152604090208054610e349061192f565b80601f0160208091040260200160405190810160405280929190818152602001828054610e609061192f565b8015610ead5780601f10610e8257610100808354040283529160200191610ead565b820191906000526020600020905b815481529060010190602001808311610e9057829003601f168201915b505050505081565b610ec082338361116d565b6107ff8282611379565b610ef47f65d7a28e3265b37a6474929f336521b332c1681b933f6cb9f3376673440d862a33610f42565b610f3a5760405162461bcd60e51b815260206004820152601760248201527621b0b63632b91034b9903737ba1030903830bab998183960491b6044820152606401610645565b6109e86113af565b60009182526006602090815260408084206001600160a01b0393909316845291905290205460ff1690565b6060600480546105589061192f565b6000610f87816111e6565b6001600160a01b038316610fdd5760405162461bcd60e51b815260206004820152601860248201527f496e76616c6964206d65726368616e74206164647265737300000000000000006044820152606401610645565b600082511161102e5760405162461bcd60e51b815260206004820152601d60248201527f4d65726368616e74206e616d652063616e6e6f7420626520656d7074790000006044820152606401610645565b6001600160a01b0383166000908152600a602052604090205460ff16156110975760405162461bcd60e51b815260206004820152601b60248201527f4d65726368616e7420616c7265616479207265676973746572656400000000006044820152606401610645565b6001600160a01b0383166000908152600a60209081526040808320805460ff19166001179055600b90915290206109328382611b57565b6000336105e981858561110e565b6000828152600660205260409020600101546110f7816111e6565b6109328383611284565b61096b83838360016113ec565b6001600160a01b03831661113857604051634b637e8f60e11b815260006004820152602401610645565b6001600160a01b0382166111625760405163ec442f0560e01b815260006004820152602401610645565b61096b8383836114c1565b6001600160a01b0383811660009081526001602090815260408083209386168352929052205460001981101561093257818110156111d757604051637dc7a0d960e11b81526001600160a01b03841660048201526024810182905260448101839052606401610645565b610932848484840360006113ec565b610b6d8133611518565b60006111fc8383610f42565b61127c5760008381526006602090815260408083206001600160a01b03861684529091529020805460ff191660011790556112343390565b6001600160a01b0316826001600160a01b0316847f2f8788117e7eff1d82e926ec794901d17c78024a50270940304540a733656f0d60405160405180910390a4506001610543565b506000610543565b60006112908383610f42565b1561127c5760008381526006602090815260408083206001600160a01b0386168085529252808320805460ff1916905551339286917ff6391f5c32d9c69d2a47ea670b442974b53935d1edc7fd64eb21e047a839171b9190a4506001610543565b6112f9611551565b6005805460ff191690557f5db9ee0a495bf2e6ff9c91a7834c1ba4fdd244a5e8aa4e537bd38aeae4b073aa335b6040516001600160a01b03909116815260200160405180910390a1565b6001600160a01b03821661136d5760405163ec442f0560e01b815260006004820152602401610645565b6107ff600083836114c1565b6001600160a01b0382166113a357604051634b637e8f60e11b815260006004820152602401610645565b6107ff826000836114c1565b6113b7611574565b6005805460ff191660011790557f62e78cea01bee320cd4e420270b5ea74000d11b0c9f74754ebdbfc544b05a2586113263390565b6001600160a01b0384166114165760405163e602df0560e01b815260006004820152602401610645565b6001600160a01b03831661144057604051634a1406b160e11b815260006004820152602401610645565b6001600160a01b038085166000908152600160209081526040808320938716835292905220829055801561093257826001600160a01b0316846001600160a01b03167f8c5be1e5ebec7d5bd14f71427d1e84f3dd0314c0f7b2291e5b200ac8c7c3b925846040516114b391815260200190565b60405180910390a350505050565b60055460ff161561150d5760405162461bcd60e51b8152602060048201526016602482015275151bdad95b881d1c985b9cd9995c9cc81c185d5cd95960521b6044820152606401610645565b61096b838383611598565b6115228282610f42565b6107ff5760405163e2517d3f60e01b81526001600160a01b038216600482015260248101839052604401610645565b60055460ff166109e857604051638dfc202b60e01b815260040160405180910390fd5b60055460ff16156109e85760405163d93c066560e01b815260040160405180910390fd5b6115a0611574565b61096b8383836001600160a01b0383166115d15780600260008282546115c691906119c7565b909155506116439050565b6001600160a01b038316600090815260208190526040902054818110156116245760405163391434e360e21b81526001600160a01b03851660048201526024810182905260448101839052606401610645565b6001600160a01b03841660009081526020819052604090209082900390555b6001600160a01b03821661165f5760028054829003905561167e565b6001600160a01b03821660009081526020819052604090208054820190555b816001600160a01b0316836001600160a01b03167fddf252ad1be2c89b69c2b068fc378daa952ba7f163c4a11628f55a4df523b3ef83604051610e0e91815260200190565b6000602082840312156116d557600080fd5b81356001600160e01b0319811681146116ed57600080fd5b9392505050565b602081526000825180602084015260005b818110156117225760208186018101516040868401015201611705565b506000604082850101526040601f19601f83011684010191505092915050565b80356001600160a01b038116811461175957600080fd5b919050565b6000806040838503121561177157600080fd5b61177a83611742565b946020939093013593505050565b60006020828403121561179a57600080fd5b6116ed82611742565b6000806000606084860312156117b857600080fd5b6117c184611742565b92506117cf60208501611742565b929592945050506040919091013590565b6000602082840312156117f257600080fd5b5035919050565b6000806040838503121561180c57600080fd5b8235915061181c60208401611742565b90509250929050565b634e487b7160e01b600052604160045260246000fd5b6000806040838503121561184e57600080fd5b61185783611742565b9150602083013567ffffffffffffffff81111561187357600080fd5b8301601f8101851361188457600080fd5b803567ffffffffffffffff81111561189e5761189e611825565b604051601f8201601f19908116603f0116810167ffffffffffffffff811182821017156118cd576118cd611825565b6040528181528282016020018710156118e557600080fd5b816020840160208301376000602083830101528093505050509250929050565b6000806040838503121561191857600080fd5b61192183611742565b915061181c60208401611742565b600181811c9082168061194357607f821691505b60208210810361196357634e487b7160e01b600052602260045260246000fd5b50919050565b6020808252818101527f416d6f756e74206d7573742062652067726561746572207468616e207a65726f604082015260600190565b634e487b7160e01b600052601160045260246000fd5b818103818111156105435761054361199e565b808201808211156105435761054361199e565b6001815b6001841115611a15578085048111156119f9576119f961199e565b6001841615611a0757908102905b60019390931c9280026119de565b935093915050565b600082611a2c57506001610543565b81611a3957506000610543565b8160018114611a4f5760028114611a5957611a75565b6001915050610543565b60ff841115611a6a57611a6a61199e565b50506001821b610543565b5060208310610133831016604e8410600b8410161715611a98575081810a610543565b611aa560001984846119da565b8060001904821115611ab957611ab961199e565b029392505050565b60006116ed60ff841683611a1d565b80820281158282048414176105435761054361199e565b600082611b0457634e487b7160e01b600052601260045260246000fd5b500490565b601f82111561096b57806000526020600020601f840160051c81016020851015611b305750805b601f840160051c820191505b81811015611b505760008155600101611b3c565b5050505050565b815167ffffffffffffffff811115611b7157611b71611825565b611b8581611b7f845461192f565b84611b09565b6020601f821160018114611bb95760008315611ba15750848201515b600019600385901b1c1916600184901b178455611b50565b600084815260208120601f198516915b82811015611be95787850151825560209485019460019092019101611bc9565b5084821015611c075786840151600019600387901b60f8161c191681555b50505050600190811b0190555056fea164736f6c634300081c000a",
  "linkReferences": {},
  "deployedLinkReferences": {}
}