{
  "_format": "hh-sol-artifact-1",
  "contractName": "StudentID",
  "sourceName": "contracts/StudentID.sol",
  "abi": [
    {
      "inputs": [],
      "stateMutability": "nonpayable",
      "type": "constructor"
    },
    {
      "inputs": [
        {
          "internalType": "address",
          "name": "sender",
          "type": "address"
        },
        {
          "internalType": "uint256",
          "name": "tokenId",
          "type": "uint256"
        },
        {
          "internalType": "address",
          "name": "owner",
          "type": "address"
        }
      ],
      "name": "ERC721IncorrectOwner",
      "type": "error"
    },
    {
      "inputs": [
        {
          "internalType": "address",
          "name": "operator",
          "type": "address"
        },
        {
          "internalType": "uint256",
          "name": "tokenId",
          "type": "uint256"
        }
      ],
      "name": "ERC721InsufficientApproval",
      "type": "error"
    },
    {
      "inputs": [
        {
          "internalType": "address",
          "name": "approver",
          "type": "address"
        }
      ],
      "name": "ERC721InvalidApprover",
      "type": "error"
    },
    {
      "inputs": [
        {
          "internalType": "address",
          "name": "operator",
          "type": "address"
        }
      ],
      "name": "ERC721InvalidOperator",
      "type": "error"
    },
    {
      "inputs": [
        {
          "internalType": "address",
          "name": "owner",
          "type": "address"
        }
      ],
      "name": "ERC721InvalidOwner",
      "type": "error"
    },
    {
      "inputs": [
        {
          "internalType": "address",
          "name": "receiver",
          "type": "address"
        }
      ],
      "name": "ERC721InvalidReceiver",
      "type": "error"
    },
    {
      "inputs": [
        {
          "internalType": "address",
          "name": "sender",
          "type": "address"
        }
      ],
      "name": "ERC721InvalidSender",
      "type": "error"
    },
    {
      "inputs": [
        {
          "internalType": "uint256",
          "name": "tokenId",
          "type": "uint256"
        }
      ],
      "name": "ERC721NonexistentToken",
      "type": "error"
    },
    {
      "inputs": [],
      "name": "EnforcedPause",
      "type": "error"
    },
    {
      "inputs": [],
      "name": "ExpectedPause",
      "type": "error"
    },
    {
      "inputs": [
        {
          "internalType": "address",
          "name": "owner",
          "type": "address"
        }
      ],
      "name": "OwnableInvalidOwner",
      "type": "error"
    },
    {
      "inputs": [
        {
          "internalType": "address",
          "name": "account",
          "type": "address"
        }
      ],
      "name": "OwnableUnauthorizedAccount",
      "type": "error"
    },
    {
      "anonymous": false,
      "inputs": [
        {
          "indexed": true,
          "internalType": "address",
          "name": "owner",
          "type": "address"
        },
        {
          "indexed": true,
          "internalType": "address",
          "name": "approved",
          "type": "address"
        },
        {
          "indexed": true,
          "internalType": "uint256",
          "name": "tokenId",
          "type": "uint256"
        }
      ],
      "name": "Approval",
      "type": "event"
    },
    {
      "anonymous": false,
      "inputs": [
        {
          "indexed": true,
          "internalType": "address",
          "name": "owner",
          "type": "address"
        },
        {
          "indexed": true,
          "internalType": "address",
          "name": "operator",
          "type": "address"
        },
        {
          "indexed": false,
          "internalType": "bool",
          "name": "approved",
          "type": "bool"
        }
      ],
      "name": "ApprovalForAll",
      "type": "event"
    },
    {
      "anonymous": false,
      "inputs": [
        {
          "indexed": false,
          "internalType": "uint256",
          "name": "_fromTokenId",
          "type": "uint256"
        },
        {
          "indexed": false,
          "internalType": "uint256",
          "name": "_toTokenId",
          "type": "uint256"
        }
      ],
      "name": "BatchMetadataUpdate",
      "type": "event"
    },
    {
      "anonymous": false,
      "inputs": [
        {
          "indexed": true,
          "internalType": "uint256",
          "name": "tokenId",
          "type": "uint256"
        }
      ],
      "name": "ExpiredIDBurned",
      "type": "event"
    },
    {
      "anonymous": false,
      "inputs": [
        {
          "indexed": false,
          "internalType": "uint256",
          "name": "_tokenId",
          "type": "uint256"
        }
      ],
      "name": "MetadataUpdate",
      "type": "event"
    },
    {
      "anonymous": false,
      "inputs": [
        {
          "indexed": true,
          "internalType": "address",
          "name": "previousOwner",
          "type": "address"
        },
        {
          "indexed": true,
          "internalType": "address",
          "name": "newOwner",
          "type": "address"
        }
      ],
      "name": "OwnershipTransferred",
      "type": "event"
    },
    {
      "anonymous": false,
      "inputs": [
        {
          "indexed": false,
          "internalType": "address",
          "name": "account",
          "type": "address"
        }
      ],
      "name": "Paused",
      "type": "event"
    },
    {
      "anonymous": false,
      "inputs": [
        {
          "indexed": true,
          "internalType": "uint256",
          "name": "tokenId",
          "type": "uint256"
        },
        {
          "indexed": false,
          "internalType": "string",
          "name": "nim",
          "type": "string"
        },
        {
          "indexed": false,
          "internalType": "address",
          "name": "student",
          "type": "address"
        },
        {
          "indexed": false,
          "internalType": "uint256",
          "name": "expiryDate",
          "type": "uint256"
        }
      ],
      "name": "StudentIDIssued",
      "type": "event"
    },
    {
      "anonymous": false,
      "inputs": [
        {
          "indexed": true,
          "internalType": "uint256",
          "name": "tokenId",
          "type": "uint256"
        },
        {
          "indexed": false,
          "internalType": "uint256",
          "name": "newExpiryDate",
          "type": "uint256"
        }
      ],
      "name": "StudentIDRenewed",
      "type": "event"
    },
    {
      "anonymous": false,
      "inputs": [
        {
          "indexed": true,
          "internalType": "uint256",
          "name": "tokenId",
          "type": "uint256"
        },
        {
          "indexed": false,
          "internalType": "bool",
          "name": "isActive",
          "type": "bool"
        }
      ],
      "name": "StudentStatusUpdated",
      "type": "event"
    },
    {
      "anonymous": false,
      "inputs": [
        {
          "indexed": true,
          "internalType": "address",
          "name": "from",
          "type": "address"
        },
        {
          "indexed": true,
          "internalType": "address",
          "name": "to",
          "type": "address"
        },
        {
          "indexed": true,
          "internalType": "uint256",
          "name": "tokenId",
          "type": "uint256"
        }
      ],
      "name": "Transfer",
      "type": "event"
    },
    {
      "anonymous": false,
      "inputs": [
        {
          "indexed": false,
          "internalType": "address",
          "name": "account",
          "type": "address"
        }
      ],
      "name": "Unpaused",
      "type": "event"
    },
    {
      "inputs": [
        {
          "internalType": "address",
          "name": "",
          "type": "address"
        }
      ],
      "name": "addressToTokenId",
      "outputs": [
        {
          "internalType": "uint256",
          "name": "",
          "type": "uint256"
        }
      ],
      "stateMutability": "view",
      "type": "function"
    },
    {
      "inputs": [
        {
          "internalType": "address",
          "name": "to",
          "type": "address"
        },
        {
          "internalType": "uint256",
          "name": "tokenId",
          "type": "uint256"
        }
      ],
      "name": "approve",
      "outputs": [],
      "stateMutability": "nonpayable",
      "type": "function"
    },
    {
      "inputs": [
        {
          "internalType": "address",
          "name": "owner",
          "type": "address"
        }
      ],
      "name": "balanceOf",
      "outputs": [
        {
          "internalType": "uint256",
          "name": "",
          "type": "uint256"
        }
      ],
      "stateMutability": "view",
      "type": "function"
    },
    {
      "inputs": [
        {
          "internalType": "uint256",
          "name": "tokenId",
          "type": "uint256"
        }
      ],
      "name": "burn",
      "outputs": [],
      "stateMutability": "nonpayable",
      "type": "function"
    },
    {
      "inputs": [
        {
          "internalType": "uint256",
          "name": "tokenId",
          "type": "uint256"
        }
      ],
      "name": "burnExpired",
      "outputs": [],
      "stateMutability": "nonpayable",
      "type": "function"
    },
    {
      "inputs": [
        {
          "internalType": "uint256",
          "name": "tokenId",
          "type": "uint256"
        }
      ],
      "name": "getApproved",
      "outputs": [
        {
          "internalType": "address",
          "name": "",
          "type": "address"
        }
      ],
      "stateMutability": "view",
      "type": "function"
    },
    {
      "inputs": [
        {
          "internalType": "string",
          "name": "nim",
          "type": "string"
        }
      ],
      "name": "getStudentByNIM",
      "outputs": [
        {
          "internalType": "address",
          "name": "owner",
          "type": "address"
        },
        {
          "internalType": "uint256",
          "name": "tokenId",
          "type": "uint256"
        },
        {
          "components": [
            {
              "internalType": "string",
              "name": "nim",
              "type": "string"
            },
            {
              "internalType": "string",
              "name": "name",
              "type": "string"
            },
            {
              "internalType": "string",
              "name": "major",
              "type": "string"
            },
            {
              "internalType": "uint256",
              "name": "enrollmentYear",
              "type": "uint256"
            },
            {
              "internalType": "uint256",
              "name": "expiryDate",
              "type": "uint256"
            },
            {
              "internalType": "bool",
              "name": "isActive",
              "type": "bool"
            },
            {
              "internalType": "uint8",
              "name": "semester",
              "type": "uint8"
            }
          ],
          "internalType": "struct StudentID.StudentData",
          "name": "data",
          "type": "tuple"
        }
      ],
      "stateMutability": "view",
      "type": "function"
    },
    {
      "inputs": [
        {
          "internalType": "address",
          "name": "owner",
          "type": "address"
        },
        {
          "internalType": "address",
          "name": "operator",
          "type": "address"
        }
      ],
      "name": "isApprovedForAll",
      "outputs": [
        {
          "internalType": "bool",
          "name": "",
          "type": "bool"
        }
      ],
      "stateMutability": "view",
      "type": "function"
    },
    {
      "inputs": [
        {
          "internalType": "uint256",
          "name": "tokenId",
          "type": "uint256"
        }
      ],
      "name": "isExpired",
      "outputs": [
        {
          "internalType": "bool",
          "name": "",
          "type": "bool"
        }
      ],
      "stateMutability": "view",
      "type": "function"
    },
    {
      "inputs": [
        {
          "internalType": "uint256",
          "name": "tokenId",
          "type": "uint256"
        }
      ],
      "name": "isValidID",
      "outputs": [
        {
          "internalType": "bool",
          "name": "",
          "type": "bool"
        }
      ],
      "stateMutability": "view",
      "type": "function"
    },
    {
      "inputs": [
        {
          "internalType": "address",
          "name": "to",
          "type": "address"
        },
        {
          "internalType": "string",
          "name": "nim",
          "type": "string"
        },
        {
          "internalType": "string",
          "name": "name",
          "type": "string"
        },
        {
          "internalType": "string",
          "name": "major",
          "type": "string"
        },
        {
          "internalType": "string",
          "name": "uri",
          "type": "string"
        }
      ],
      "name": "issueStudentID",
      "outputs": [],
      "stateMutability": "nonpayable",
      "type": "function"
    },
    {
      "inputs": [],
      "name": "name",
      "outputs": [
        {
          "internalType": "string",
          "name": "",
          "type": "string"
        }
      ],
      "stateMutability": "view",
      "type": "function"
    },
    {
      "inputs": [
        {
          "internalType": "string",
          "name": "",
          "type": "string"
        }
      ],
      "name": "nimToTokenId",
      "outputs": [
        {
          "internalType": "uint256",
          "name": "",
          "type": "uint256"
        }
      ],
      "stateMutability": "view",
      "type": "function"
    },
    {
      "inputs": [],
      "name": "owner",
      "outputs": [
        {
          "internalType": "address",
          "name": "",
          "type": "address"
        }
      ],
      "stateMutability": "view",
      "type": "function"
    },
    {
      "inputs": [
        {
          "internalType": "uint256",
          "name": "tokenId",
          "type": "uint256"
        }
      ],
      "name": "ownerOf",
      "outputs": [
        {
          "internalType": "address",
          "name": "",
          "type": "address"
        }
      ],
      "stateMutability": "view",
      "type": "function"
    },
    {
      "inputs": [],
      "name": "paused",
      "outputs": [
        {
          "internalType": "bool",
          "name": "",
          "type": "bool"
        }
      ],
      "stateMutability": "view",
      "type": "function"
    },
    {
      "inputs": [
        {
          "internalType": "uint256",
          "name": "tokenId",
          "type": "uint256"
        }
      ],
      "name": "renewStudentID",
      "outputs": [],
      "stateMutability": "nonpayable",
      "type": "function"
    },
    {
      "inputs": [],
      "name": "renounceOwnership",
      "outputs": [],
      "stateMutability": "nonpayable",
      "type": "function"
    },
    {
      "inputs": [
        {
          "internalType": "address",
          "name": "from",
          "type": "address"
        },
        {
          "internalType": "address",
          "name": "to",
          "type": "address"
        },
        {
          "internalType": "uint256",
          "name": "tokenId",
          "type": "uint256"
        }
      ],
      "name": "safeTransferFrom",
      "outputs": [],
      "stateMutability": "nonpayable",
      "type": "function"
    },
    {
      "inputs": [
        {
          "internalType": "address",
          "name": "from",
          "type": "address"
        },
        {
          "internalType": "address",
          "name": "to",
          "type": "address"
        },
        {
          "internalType": "uint256",
          "name": "tokenId",
          "type": "uint256"
        },
        {
          "internalType": "bytes",
          "name": "data",
          "type": "bytes"
        }
      ],
      "name": "safeTransferFrom",
      "outputs": [],
      "stateMutability": "nonpayable",
      "type": "function"
    },
    {
      "inputs": [
        {
          "internalType": "address",
          "name": "operator",
          "type": "address"
        },
        {
          "internalType": "bool",
          "name": "approved",
          "type": "bool"
        }
      ],
      "name": "setApprovalForAll",
      "outputs": [],
      "stateMutability": "nonpayable",
      "type": "function"
    },
    {
      "inputs": [
        {
          "internalType": "uint256",
          "name": "",
          "type": "uint256"
        }
      ],
      "name": "studentData",
      "outputs": [
        {
          "internalType": "string",
          "name": "nim",
          "type": "string"
        },
        {
          "internalType": "string",
          "name": "name",
          "type": "string"
        },
        {
          "internalType": "string",
          "name": "major",
          "type": "string"
        },
        {
          "internalType": "uint256",
          "name": "enrollmentYear",
          "type": "uint256"
        },
        {
          "internalType": "uint256",
          "name": "expiryDate",
          "type": "uint256"
        },
        {
          "internalType": "bool",
          "name": "isActive",
          "type": "bool"
        },
        {
          "internalType": "uint8",
          "name": "semester",
          "type": "uint8"
        }
      ],
      "stateMutability": "view",
      "type": "function"
    },
    {
      "inputs": [
        {
          "internalType": "bytes4",
          "name": "interfaceId",
          "type": "bytes4"
        }
      ],
      "name": "supportsInterface",
      "outputs": [
        {
          "internalType": "bool",
          "name": "",
          "type": "bool"
        }
      ],
      "stateMutability": "view",
      "type": "function"
    },
    {
      "inputs": [],
      "name": "symbol",
      "outputs": [
        {
          "internalType": "string",
          "name": "",
          "type": "string"
        }
      ],
      "stateMutability": "view",
      "type": "function"
    },
    {
      "inputs": [
        {
          "internalType": "uint256",
          "name": "tokenId",
          "type": "uint256"
        }
      ],
      "name": "tokenURI",
      "outputs": [
        {
          "internalType": "string",
          "name": "",
          "type": "string"
        }
      ],
      "stateMutability": "view",
      "type": "function"
    },
    {
      "inputs": [
        {
          "internalType": "address",
          "name": "from",
          "type": "address"
        },
        {
          "internalType": "address",
          "name": "to",
          "type": "address"
        },
        {
          "internalType": "uint256",
          "name": "tokenId",
          "type": "uint256"
        }
      ],
      "name": "transferFrom",
      "outputs": [],
      "stateMutability": "nonpayable",
      "type": "function"
    },
    {
      "inputs": [
        {
          "internalType": "address",
          "name": "newOwner",
          "type": "address"
        }
      ],
      "name": "transferOwnership",
      "outputs": [],
      "stateMutability": "nonpayable",
      "type": "function"
    },
    {
      "inputs": [
        {
          "internalType": "uint256",
          "name": "tokenId",
          "type": "uint256"
        },
        {
          "internalType": "bool",
          "name": "isActive",
          "type": "bool"
        }
      ],
      "name": "updateStudentStatus",
      "outputs": [],
      "stateMutability": "nonpayable",
      "type": "function"
    }
  ],
  "bytecode": "0x608060405234801561001057600080fd5b50336040518060400160405280601581526020017f53747564656e74204964656e74697479204361726400000000000000000000008152506040518060400160405280600381526020016214d25160ea1b815250816000908161007391906101b9565b50600161008082826101b9565b5050506001600160a01b0381166100b157604051631e4fbdf760e01b81526000600482015260240160405180910390fd5b6100ba816100c0565b50610277565b600780546001600160a01b03838116610100818102610100600160a81b031985161790945560405193909204169182907f8be0079c531659141344cd1fd0a4f28419497f9722a3daafe3b4186f6b6457e090600090a35050565b634e487b7160e01b600052604160045260246000fd5b600181811c9082168061014457607f821691505b60208210810361016457634e487b7160e01b600052602260045260246000fd5b50919050565b601f8211156101b457806000526020600020601f840160051c810160208510156101915750805b601f840160051c820191505b818110156101b1576000815560010161019d565b50505b505050565b81516001600160401b038111156101d2576101d261011a565b6101e6816101e08454610130565b8461016a565b6020601f82116001811461021a57600083156102025750848201515b600019600385901b1c1916600184901b1784556101b1565b600084815260208120601f198516915b8281101561024a578785015182556020948501946001909201910161022a565b50848210156102685786840151600019600387901b60f8161c191681555b50505050600190811b01905550565b612aab806102866000396000f3fe608060405234801561001057600080fd5b50600436106101c45760003560e01c8063715018a6116100f9578063c87b56dd11610097578063dc36af5111610071578063dc36af51146103e4578063e8f748ba1461040f578063e985e9c514610422578063f2fde38b1461043557600080fd5b8063c87b56dd146103ab578063d098769b146103be578063d9548e53146103d157600080fd5b8063a22cb465116100d3578063a22cb4651461035f578063aeb5708814610372578063b88d4fde14610385578063c73ffcc01461039857600080fd5b8063715018a6146103395780638da5cb5b1461034157806395d89b411461035757600080fd5b806334f0eb1a116101665780635c975abb116101405780635c975abb146102da5780636352211e146102e55780636511bf2e146102f857806370a082311461032657600080fd5b806334f0eb1a1461028e57806342842e0e146102b457806342966c68146102c757600080fd5b8063095ea7b3116101a2578063095ea7b3146102315780630d9f41c51461024657806323b872dd146102595780632ff4d1581461026c57600080fd5b806301ffc9a7146101c957806306fdde03146101f1578063081812fc14610206575b600080fd5b6101dc6101d7366004612265565b610448565b60405190151581526020015b60405180910390f35b6101f9610459565b6040516101e891906122d2565b6102196102143660046122e5565b6104eb565b6040516001600160a01b0390911681526020016101e8565b61024461023f36600461231a565b610514565b005b6101dc6102543660046122e5565b610523565b610244610267366004612344565b610767565b61027f61027a366004612431565b6107f7565b6040516101e893929190612466565b6102a161029c3660046122e5565b610b00565b6040516101e89796959493929190612510565b6102446102c2366004612344565b610cda565b6102446102d53660046122e5565b610cfa565b60075460ff166101dc565b6102196102f33660046122e5565b610db9565b610318610306366004612573565b600b6020526000908152604090205481565b6040519081526020016101e8565b610318610334366004612573565b610dc4565b610244610e0c565b60075461010090046001600160a01b0316610219565b6101f9610e20565b61024461036d36600461259e565b610e2f565b6102446103803660046125d1565b610e3a565b6102446103933660046125f4565b610ecf565b6102446103a6366004612670565b610ee7565b6101f96103b93660046122e5565b611279565b6102446103cc3660046122e5565b611284565b6101dc6103df3660046122e5565b611521565b6103186103f2366004612431565b8051602081830181018051600a8252928201919093012091525481565b61024461041d3660046122e5565b61155d565b6101dc610430366004612741565b611708565b610244610443366004612573565b611736565b600061045382611774565b92915050565b6060600080546104689061276b565b80601f01602080910402602001604051908101604052809291908181526020018280546104949061276b565b80156104e15780601f106104b6576101008083540402835291602001916104e1565b820191906000526020600020905b8154815290600101906020018083116104c457829003601f168201915b5050505050905090565b60006104f682611799565b506000828152600460205260409020546001600160a01b0316610453565b61051f8282336117d2565b5050565b6000818152600260205260408120546001600160a01b031661054757506000919050565b600082815260096020526040808220815160e0810190925280548290829061056e9061276b565b80601f016020809104026020016040519081016040528092919081815260200182805461059a9061276b565b80156105e75780601f106105bc576101008083540402835291602001916105e7565b820191906000526020600020905b8154815290600101906020018083116105ca57829003601f168201915b505050505081526020016001820180546106009061276b565b80601f016020809104026020016040519081016040528092919081815260200182805461062c9061276b565b80156106795780601f1061064e57610100808354040283529160200191610679565b820191906000526020600020905b81548152906001019060200180831161065c57829003601f168201915b505050505081526020016002820180546106929061276b565b80601f01602080910402602001604051908101604052809291908181526020018280546106be9061276b565b801561070b5780601f106106e05761010080835404028352916020019161070b565b820191906000526020600020905b8154815290600101906020018083116106ee57829003601f168201915b5050509183525050600382015460208201526004820154604082015260059091015460ff808216151560608401526101009091041660809091015260a08101519091508015610760575061075e83611521565b155b9392505050565b6001600160a01b03821661079657604051633250574960e11b8152600060048201526024015b60405180910390fd5b60006107a38383336117df565b9050836001600160a01b0316816001600160a01b0316146107f1576040516364283d7b60e01b81526001600160a01b038086166004830152602482018490528216604482015260640161078d565b50505050565b60008061083f6040518060e001604052806060815260200160608152602001606081526020016000815260200160008152602001600015158152602001600060ff1681525090565b60008451116108865760405162461bcd60e51b81526020600482015260136024820152724e494d2063616e6e6f7420626520656d70747960681b604482015260640161078d565b600a8460405161089691906127a5565b9081526020016040518091039020549150816000036108e75760405162461bcd60e51b815260206004820152600d60248201526c139253481b9bdd08199bdd5b99609a1b604482015260640161078d565b6108f082610db9565b9250600960008381526020019081526020016000206040518060e00160405290816000820180546109209061276b565b80601f016020809104026020016040519081016040528092919081815260200182805461094c9061276b565b80156109995780601f1061096e57610100808354040283529160200191610999565b820191906000526020600020905b81548152906001019060200180831161097c57829003601f168201915b505050505081526020016001820180546109b29061276b565b80601f01602080910402602001604051908101604052809291908181526020018280546109de9061276b565b8015610a2b5780601f10610a0057610100808354040283529160200191610a2b565b820191906000526020600020905b815481529060010190602001808311610a0e57829003601f168201915b50505050508152602001600282018054610a449061276b565b80601f0160208091040260200160405190810160405280929190818152602001828054610a709061276b565b8015610abd5780601f10610a9257610100808354040283529160200191610abd565b820191906000526020600020905b815481529060010190602001808311610aa057829003601f168201915b5050509183525050600382015460208201526004820154604082015260059091015460ff8082161515606084015261010090910416608090910152929491935050565b600960205260009081526040902080548190610b1b9061276b565b80601f0160208091040260200160405190810160405280929190818152602001828054610b479061276b565b8015610b945780601f10610b6957610100808354040283529160200191610b94565b820191906000526020600020905b815481529060010190602001808311610b7757829003601f168201915b505050505090806001018054610ba99061276b565b80601f0160208091040260200160405190810160405280929190818152602001828054610bd59061276b565b8015610c225780601f10610bf757610100808354040283529160200191610c22565b820191906000526020600020905b815481529060010190602001808311610c0557829003601f168201915b505050505090806002018054610c379061276b565b80601f0160208091040260200160405190810160405280929190818152602001828054610c639061276b565b8015610cb05780601f10610c8557610100808354040283529160200191610cb0565b820191906000526020600020905b815481529060010190602001808311610c9357829003601f168201915b50505050600383015460048401546005909401549293909290915060ff8082169161010090041687565b610cf583838360405180602001604052806000815250610ecf565b505050565b610d038161186f565b600081815260096020526040812090610d1c8282612201565b610d2a600183016000612201565b610d38600283016000612201565b50600060038201819055600482018190556005909101805461ffff1916905581815260096020526040908190209051600a91610d73916127c1565b908152602001604051809103902060009055600b6000610d9283610db9565b6001600160a01b03166001600160a01b031681526020019081526020016000206000905550565b600061045382611799565b60006001600160a01b038216610df0576040516322718ad960e21b81526000600482015260240161078d565b506001600160a01b031660009081526003602052604090205490565b610e1461187b565b610e1e60006118ae565b565b6060600180546104689061276b565b61051f338383611908565b610e4261187b565b816008541015610e645760405162461bcd60e51b815260040161078d90612836565b6000828152600960205260409020600501805460ff191682151517905580610e8f57610e8f82611284565b817ffceaee20ea0c6a7695d4098e27a1c6d0a5d39ae55cec3680a7cc4f87c6c99ae482604051610ec3911515815260200190565b60405180910390a25050565b610eda848484610767565b6107f133858585856119a7565b610eef61187b565b6000845111610f365760405162461bcd60e51b81526020600482015260136024820152724e494d2063616e6e6f7420626520656d70747960681b604482015260640161078d565b6000835111610f7e5760405162461bcd60e51b81526020600482015260146024820152734e616d652063616e6e6f7420626520656d70747960601b604482015260640161078d565b6000825111610fc75760405162461bcd60e51b81526020600482015260156024820152744d616a6f722063616e6e6f7420626520656d70747960581b604482015260640161078d565b6001600160a01b03851661101d5760405162461bcd60e51b815260206004820152601c60248201527f43616e6e6f7420697373756520746f207a65726f206164647265737300000000604482015260640161078d565b600a8460405161102d91906127a5565b9081526020016040518091039020546000146110805760405162461bcd60e51b81526020600482015260126024820152714e494d20616c72656164792065786973747360701b604482015260640161078d565b6001600160a01b0385166000908152600b6020526040902054156110e65760405162461bcd60e51b815260206004820152601960248201527f4164647265737320616c72656164792068617320616e20494400000000000000604482015260640161078d565b60088054600091826110f78361287a565b909155509050600061110d42630784ce00612893565b90506111198783611ad2565b6111238284611b37565b6040518060e001604052808781526020018681526020018581526020016301e133804261115091906128a6565b8152602080820184905260016040808401829052606090930152600085815260099091522081518190611183908261290f565b5060208201516001820190611198908261290f565b50604082015160028201906111ad908261290f565b50606082015160038201556080820151600482015560a08201516005909101805460c09093015160ff166101000261ff00199215159290921661ffff19909316929092171790556040518290600a906112079089906127a5565b9081526040805160209281900383018120939093556001600160a01b038a166000908152600b909252902083905582907fd546331ab71c191daf526c220c40da4f06e37152c6f63efe16cd71155525efc4906112689089908b9086906129ce565b60405180910390a250505050505050565b606061045382611b87565b6000818152600260205260409020546001600160a01b03166112b85760405162461bcd60e51b815260040161078d90612836565b6112c181611521565b806112de575060008181526009602052604090206005015460ff16155b61132a5760405162461bcd60e51b815260206004820152601d60248201527f4944206973206e6f742065787069726564206f7220696e616374697665000000604482015260640161078d565b3361133482610db9565b6001600160a01b0316148061135957506007546001600160a01b036101009091041633145b6113b95760405162461bcd60e51b815260206004820152602b60248201527f4f6e6c7920746f6b656e206f776e6572206f7220636f6e7472616374206f776e60448201526a32b91031b0b710313ab93760a91b606482015260840161078d565b600081815260096020526040812080546113d29061276b565b80601f01602080910402602001604051908101604052809291908181526020018280546113fe9061276b565b801561144b5780601f106114205761010080835404028352916020019161144b565b820191906000526020600020905b81548152906001019060200180831161142e57829003601f168201915b50505050509050600061145d83610db9565b9050600a8260405161146f91906127a5565b90815260408051602092819003830190206000908190556001600160a01b0384168152600b835281812081905585815260099092528120906114b18282612201565b6114bf600183016000612201565b6114cd600283016000612201565b506000600382018190556004820155600501805461ffff191690556114f183611c98565b60405183907f2509da5bc6b9c58fc086ac8815d0affdd01277d4af14a42b0364a6f85b97ef2a90600090a2505050565b60008160085410156115455760405162461bcd60e51b815260040161078d90612836565b50600090815260096020526040902060040154421190565b61156561187b565b6000818152600260205260409020546001600160a01b03166115995760405162461bcd60e51b815260040161078d90612836565b60008181526009602052604090206005015460ff166115f25760405162461bcd60e51b815260206004820152601560248201527453747564656e74206973206e6f742061637469766560581b604482015260640161078d565b6115fb81611521565b156116485760405162461bcd60e51b815260206004820152601760248201527f43616e6e6f742072656e65772065787069726564204944000000000000000000604482015260640161078d565b6000818152600960205260408120600401805462ed4e00929061166c908490612893565b90915550506000818152600960205260409020600501805460019190829061169d908290610100900460ff166129fc565b92506101000a81548160ff021916908360ff160217905550807fc5fe00810edcaa24680b1ba35d08840e552667af57ac89827c4e695e98153d7860096000848152602001908152602001600020600401546040516116fd91815260200190565b60405180910390a250565b6001600160a01b03918216600090815260056020908152604080832093909416825291909152205460ff1690565b61173e61187b565b6001600160a01b03811661176857604051631e4fbdf760e01b81526000600482015260240161078d565b611771816118ae565b50565b60006001600160e01b03198216632483248360e11b1480610453575061045382611cd3565b6000818152600260205260408120546001600160a01b03168061045357604051637e27328960e01b81526004810184905260240161078d565b610cf58383836001611d23565b6000828152600260205260408120546001600160a01b0316801580159061180e57506001600160a01b03851615155b1561185b5760405162461bcd60e51b815260206004820152601760248201527f534944206973206e6f6e2d7472616e7366657261626c65000000000000000000604482015260640161078d565b611866858585611e29565b95945050505050565b61051f600082336117df565b6007546001600160a01b03610100909104163314610e1e5760405163118cdaa760e01b815233600482015260240161078d565b600780546001600160a01b03838116610100818102610100600160a81b031985161790945560405193909204169182907f8be0079c531659141344cd1fd0a4f28419497f9722a3daafe3b4186f6b6457e090600090a35050565b6001600160a01b03821661193a57604051630b61174360e31b81526001600160a01b038316600482015260240161078d565b6001600160a01b03838116600081815260056020908152604080832094871680845294825291829020805460ff191686151590811790915591519182527f17307eab39ab6107e8899845ad3d59bd9653f200f220920489ca2b5937696c31910160405180910390a3505050565b6001600160a01b0383163b15611acb57604051630a85bd0160e11b81526001600160a01b0384169063150b7a02906119e9908890889087908790600401612a15565b6020604051808303816000875af1925050508015611a24575060408051601f3d908101601f19168201909252611a2191810190612a52565b60015b611a8d573d808015611a52576040519150601f19603f3d011682016040523d82523d6000602084013e611a57565b606091505b508051600003611a8557604051633250574960e11b81526001600160a01b038516600482015260240161078d565b805181602001fd5b6001600160e01b03198116630a85bd0160e11b14611ac957604051633250574960e11b81526001600160a01b038516600482015260240161078d565b505b5050505050565b6001600160a01b038216611afc57604051633250574960e11b81526000600482015260240161078d565b6000611b0a838360006117df565b90506001600160a01b03811615610cf5576040516339e3563760e11b81526000600482015260240161078d565b6000828152600660205260409020611b4f828261290f565b506040518281527ff8e1a15aba9398e019f0b49df1a4fde98ee17ae345cb5f6b5e2c27f5033e8ce79060200160405180910390a15050565b6060611b9282611799565b5060008281526006602052604081208054611bac9061276b565b80601f0160208091040260200160405190810160405280929190818152602001828054611bd89061276b565b8015611c255780601f10611bfa57610100808354040283529160200191611c25565b820191906000526020600020905b815481529060010190602001808311611c0857829003601f168201915b505050505090506000611c4360408051602081019091526000815290565b90508051600003611c55575092915050565b815115611c87578082604051602001611c6f929190612a6f565b60405160208183030381529060405292505050919050565b611c9084611e3e565b949350505050565b6000611ca760008360006117df565b90506001600160a01b03811661051f57604051637e27328960e01b81526004810183905260240161078d565b60006001600160e01b031982166380ac58cd60e01b1480611d0457506001600160e01b03198216635b5e139f60e01b145b8061045357506301ffc9a760e01b6001600160e01b0319831614610453565b8080611d3757506001600160a01b03821615155b15611df9576000611d4784611799565b90506001600160a01b03831615801590611d735750826001600160a01b0316816001600160a01b031614155b8015611d865750611d848184611708565b155b15611daf5760405163a9fbf51f60e01b81526001600160a01b038416600482015260240161078d565b8115611df75783856001600160a01b0316826001600160a01b03167f8c5be1e5ebec7d5bd14f71427d1e84f3dd0314c0f7b2291e5b200ac8c7c3b92560405160405180910390a45b505b5050600090815260046020526040902080546001600160a01b0319166001600160a01b0392909216919091179055565b6000611e33611eb2565b611c90848484611ed6565b6060611e4982611799565b506000611e6160408051602081019091526000815290565b90506000815111611e815760405180602001604052806000815250610760565b80611e8b84611fcf565b604051602001611e9c929190612a6f565b6040516020818303038152906040529392505050565b60075460ff1615610e1e5760405163d93c066560e01b815260040160405180910390fd5b6000828152600260205260408120546001600160a01b0390811690831615611f0357611f03818486612062565b6001600160a01b03811615611f4157611f20600085600080611d23565b6001600160a01b038116600090815260036020526040902080546000190190555b6001600160a01b03851615611f70576001600160a01b0385166000908152600360205260409020805460010190555b60008481526002602052604080822080546001600160a01b0319166001600160a01b0389811691821790925591518793918516917fddf252ad1be2c89b69c2b068fc378daa952ba7f163c4a11628f55a4df523b3ef91a4949350505050565b60606000611fdc836120c6565b600101905060008167ffffffffffffffff811115611ffc57611ffc612381565b6040519080825280601f01601f191660200182016040528015612026576020820181803683370190505b5090508181016020015b600019016f181899199a1a9b1b9c1cb0b131b232b360811b600a86061a8153600a850494508461203057509392505050565b61206d83838361219e565b610cf5576001600160a01b03831661209b57604051637e27328960e01b81526004810182905260240161078d565b60405163177e802f60e01b81526001600160a01b03831660048201526024810182905260440161078d565b60008072184f03e93ff9f4daa797ed6e38ed64bf6a1f0160401b83106121055772184f03e93ff9f4daa797ed6e38ed64bf6a1f0160401b830492506040015b6d04ee2d6d415b85acef81000000008310612131576d04ee2d6d415b85acef8100000000830492506020015b662386f26fc10000831061214f57662386f26fc10000830492506010015b6305f5e1008310612167576305f5e100830492506008015b612710831061217b57612710830492506004015b6064831061218d576064830492506002015b600a83106104535760010192915050565b60006001600160a01b03831615801590611c905750826001600160a01b0316846001600160a01b031614806121d857506121d88484611708565b80611c905750506000908152600460205260409020546001600160a01b03908116911614919050565b50805461220d9061276b565b6000825580601f1061221d575050565b601f01602090049060005260206000209081019061177191905b8082111561224b5760008155600101612237565b5090565b6001600160e01b03198116811461177157600080fd5b60006020828403121561227757600080fd5b81356107608161224f565b60005b8381101561229d578181015183820152602001612285565b50506000910152565b600081518084526122be816020860160208601612282565b601f01601f19169290920160200192915050565b60208152600061076060208301846122a6565b6000602082840312156122f757600080fd5b5035919050565b80356001600160a01b038116811461231557600080fd5b919050565b6000806040838503121561232d57600080fd5b612336836122fe565b946020939093013593505050565b60008060006060848603121561235957600080fd5b612362846122fe565b9250612370602085016122fe565b929592945050506040919091013590565b634e487b7160e01b600052604160045260246000fd5b60008067ffffffffffffffff8411156123b2576123b2612381565b50604051601f19601f85018116603f0116810181811067ffffffffffffffff821117156123e1576123e1612381565b6040528381529050808284018510156123f957600080fd5b83836020830137600060208583010152509392505050565b600082601f83011261242257600080fd5b61076083833560208501612397565b60006020828403121561244357600080fd5b813567ffffffffffffffff81111561245a57600080fd5b611c9084828501612411565b60018060a01b0384168152826020820152606060408201526000825160e060608401526124976101408401826122a6565b90506020840151605f198483030160808501526124b482826122a6565b9150506040840151605f198483030160a08501526124d282826122a6565b915050606084015160c0840152608084015160e084015260a0840151151561010084015260ff60c08501511661012084015280915050949350505050565b60e08152600061252360e083018a6122a6565b8281036020840152612535818a6122a6565b9050828103604084015261254981896122a6565b60608401979097525050608081019390935290151560a083015260ff1660c0909101529392505050565b60006020828403121561258557600080fd5b610760826122fe565b8035801515811461231557600080fd5b600080604083850312156125b157600080fd5b6125ba836122fe565b91506125c86020840161258e565b90509250929050565b600080604083850312156125e457600080fd5b823591506125c86020840161258e565b6000806000806080858703121561260a57600080fd5b612613856122fe565b9350612621602086016122fe565b925060408501359150606085013567ffffffffffffffff81111561264457600080fd5b8501601f8101871361265557600080fd5b61266487823560208401612397565b91505092959194509250565b600080600080600060a0868803121561268857600080fd5b612691866122fe565b9450602086013567ffffffffffffffff8111156126ad57600080fd5b6126b988828901612411565b945050604086013567ffffffffffffffff8111156126d657600080fd5b6126e288828901612411565b935050606086013567ffffffffffffffff8111156126ff57600080fd5b61270b88828901612411565b925050608086013567ffffffffffffffff81111561272857600080fd5b61273488828901612411565b9150509295509295909350565b6000806040838503121561275457600080fd5b61275d836122fe565b91506125c8602084016122fe565b600181811c9082168061277f57607f821691505b60208210810361279f57634e487b7160e01b600052602260045260246000fd5b50919050565b600082516127b7818460208701612282565b9190910192915050565b60008083546127cf8161276b565b6001821680156127e657600181146127fb5761282b565b60ff198316865281151582028601935061282b565b86600052602060002060005b8381101561282357815488820152600190910190602001612807565b505081860193505b509195945050505050565b602080825260149082015273151bdad95b88191bd95cc81b9bdd08195e1a5cdd60621b604082015260600190565b634e487b7160e01b600052601160045260246000fd5b60006001820161288c5761288c612864565b5060010190565b8082018082111561045357610453612864565b6000826128c357634e487b7160e01b600052601260045260246000fd5b500490565b601f821115610cf557806000526020600020601f840160051c810160208510156128ef5750805b601f840160051c820191505b81811015611acb57600081556001016128fb565b815167ffffffffffffffff81111561292957612929612381565b61293d81612937845461276b565b846128c8565b6020601f82116001811461297157600083156129595750848201515b600019600385901b1c1916600184901b178455611acb565b600084815260208120601f198516915b828110156129a15787850151825560209485019460019092019101612981565b50848210156129bf5786840151600019600387901b60f8161c191681555b50505050600190811b01905550565b6060815260006129e160608301866122a6565b6001600160a01b039490941660208301525060400152919050565b60ff818116838216019081111561045357610453612864565b6001600160a01b0385811682528416602082015260408101839052608060608201819052600090612a48908301846122a6565b9695505050505050565b600060208284031215612a6457600080fd5b81516107608161224f565b60008351612a81818460208801612282565b835190830190612a95818360208801612282565b0194935050505056fea164736f6c634300081c000a",
  "linkReferences": {},
  "deployedLinkReferences": {}
}